{
  "_format": "hh-sol-artifact-1",
  "contractName": "UsersData",
  "sourceName": "contracts/data/UsersData.sol",
  "abi": [
    {
      "inputs": [],
      "stateMutability": "nonpayable",
      "type": "constructor"
    },
    {
      "inputs": [
        {
          "internalType": "address",
          "name": "_userAddress",
          "type": "address"
        },
        {
          "internalType": "string",
          "name": "_userName",
          "type": "string"
        },
        {
          "internalType": "string",
          "name": "_userProfile",
          "type": "string"
        },
        {
          "internalType": "string",
          "name": "_userIcon",
          "type": "string"
        }
      ],
      "name": "addUsers",
      "outputs": [],
      "stateMutability": "nonpayable",
      "type": "function"
    },
    {
      "inputs": [],
      "name": "getAllUserList",
      "outputs": [
        {
          "components": [
            {
              "internalType": "address",
              "name": "userAddress",
              "type": "address"
            },
            {
              "internalType": "string",
              "name": "userName",
              "type": "string"
            },
            {
              "internalType": "string",
              "name": "userProfile",
              "type": "string"
            },
            {
              "internalType": "string",
              "name": "userIcon",
              "type": "string"
            },
            {
              "internalType": "uint256",
              "name": "creationTime",
              "type": "uint256"
            }
          ],
          "internalType": "struct SharedStruct.User[]",
          "name": "",
          "type": "tuple[]"
        }
      ],
      "stateMutability": "view",
      "type": "function"
    },
    {
      "inputs": [
        {
          "internalType": "uint256",
          "name": "",
          "type": "uint256"
        }
      ],
      "name": "users",
      "outputs": [
        {
          "internalType": "address",
          "name": "userAddress",
          "type": "address"
        },
        {
          "internalType": "string",
          "name": "userName",
          "type": "string"
        },
        {
          "internalType": "string",
          "name": "userProfile",
          "type": "string"
        },
        {
          "internalType": "string",
          "name": "userIcon",
          "type": "string"
        },
        {
          "internalType": "uint256",
          "name": "creationTime",
          "type": "uint256"
        }
      ],
      "stateMutability": "view",
      "type": "function"
    }
  ],
  "bytecode": "0x608060405234801561001057600080fd5b506109eb806100206000396000f3fe608060405234801561001057600080fd5b50600436106100415760003560e01c80632ce058f614610046578063365b98b21461005b5780635849606d14610088575b600080fd5b610059610054366004610647565b61009d565b005b61006e6100693660046106ee565b61018b565b60405161007f95949392919061074d565b60405180910390f35b61009061036f565b60405161007f91906107aa565b6040805160a0810182526001600160a01b03868116825260208201868152928201859052606082018490524260808301526000805460018101825590805282517f290decd9548b62a8d60345a988386fc84ba6bc95484008f6362f93160ef3e563600590920291820180546001600160a01b031916919093161782559251919290917f290decd9548b62a8d60345a988386fc84ba6bc95484008f6362f93160ef3e5649091019061014e90826108f5565b506040820151600282019061016390826108f5565b506060820151600382019061017890826108f5565b5060808201518160040155505050505050565b6000818154811061019b57600080fd5b6000918252602090912060059091020180546001820180546001600160a01b039092169350906101ca9061086c565b80601f01602080910402602001604051908101604052809291908181526020018280546101f69061086c565b80156102435780601f1061021857610100808354040283529160200191610243565b820191906000526020600020905b81548152906001019060200180831161022657829003601f168201915b5050505050908060020180546102589061086c565b80601f01602080910402602001604051908101604052809291908181526020018280546102849061086c565b80156102d15780601f106102a6576101008083540402835291602001916102d1565b820191906000526020600020905b8154815290600101906020018083116102b457829003601f168201915b5050505050908060030180546102e69061086c565b80601f01602080910402602001604051908101604052809291908181526020018280546103129061086c565b801561035f5780601f106103345761010080835404028352916020019161035f565b820191906000526020600020905b81548152906001019060200180831161034257829003601f168201915b5050505050908060040154905085565b60606000805480602002602001604051908101604052809291908181526020016000905b8282101561059b5760008481526020908190206040805160a081019091526005850290910180546001600160a01b0316825260018101805492939192918401916103dc9061086c565b80601f01602080910402602001604051908101604052809291908181526020018280546104089061086c565b80156104555780601f1061042a57610100808354040283529160200191610455565b820191906000526020600020905b81548152906001019060200180831161043857829003601f168201915b5050505050815260200160028201805461046e9061086c565b80601f016020809104026020016040519081016040528092919081815260200182805461049a9061086c565b80156104e75780601f106104bc576101008083540402835291602001916104e7565b820191906000526020600020905b8154815290600101906020018083116104ca57829003601f168201915b505050505081526020016003820180546105009061086c565b80601f016020809104026020016040519081016040528092919081815260200182805461052c9061086c565b80156105795780601f1061054e57610100808354040283529160200191610579565b820191906000526020600020905b81548152906001019060200180831161055c57829003601f168201915b5050505050815260200160048201548152505081526020019060010190610393565b50505050905090565b634e487b7160e01b600052604160045260246000fd5b600082601f8301126105cb57600080fd5b813567ffffffffffffffff808211156105e6576105e66105a4565b604051601f8301601f19908116603f0116810190828211818310171561060e5761060e6105a4565b8160405283815286602085880101111561062757600080fd5b836020870160208301376000602085830101528094505050505092915050565b6000806000806080858703121561065d57600080fd5b84356001600160a01b038116811461067457600080fd5b9350602085013567ffffffffffffffff8082111561069157600080fd5b61069d888389016105ba565b945060408701359150808211156106b357600080fd5b6106bf888389016105ba565b935060608701359150808211156106d557600080fd5b506106e2878288016105ba565b91505092959194509250565b60006020828403121561070057600080fd5b5035919050565b6000815180845260005b8181101561072d57602081850181015186830182015201610711565b506000602082860101526020601f19601f83011685010191505092915050565b6001600160a01b038616815260a06020820181905260009061077190830187610707565b82810360408401526107838187610707565b905082810360608401526107978186610707565b9150508260808301529695505050505050565b60006020808301818452808551808352604092508286019150828160051b87010184880160005b8381101561085e57888303603f19018552815180516001600160a01b031684528781015160a08986018190529061080a82870182610707565b91505087820151858203898701526108228282610707565b9150506060808301518683038288015261083c8382610707565b60809485015197909401969096525050948701949250908601906001016107d1565b509098975050505050505050565b600181811c9082168061088057607f821691505b6020821081036108a057634e487b7160e01b600052602260045260246000fd5b50919050565b601f8211156108f057600081815260208120601f850160051c810160208610156108cd5750805b601f850160051c820191505b818110156108ec578281556001016108d9565b5050505b505050565b815167ffffffffffffffff81111561090f5761090f6105a4565b6109238161091d845461086c565b846108a6565b602080601f83116001811461095857600084156109405750858301515b600019600386901b1c1916600185901b1785556108ec565b600085815260208120601f198616915b8281101561098757888601518255948401946001909101908401610968565b50858210156109a55787850151600019600388901b60f8161c191681555b5050505050600190811b0190555056fea2646970667358221220a6619b46ba3b6d32fc57de59e465788b57468b39ec4024750ec6d375522534c664736f6c63430008110033",
  "linkReferences": {},
  "deployedLinkReferences": {}
}