{
  "_format": "hh-sol-artifact-1",
  "contractName": "DaosData",
  "sourceName": "contracts/data/DaosData.sol",
  "abi": [
    {
      "inputs": [],
      "stateMutability": "nonpayable",
      "type": "constructor"
    },
    {
      "inputs": [
        {
          "internalType": "address",
          "name": "_daoAddress",
          "type": "address"
        },
        {
          "internalType": "string",
          "name": "_daoName",
          "type": "string"
        },
        {
          "internalType": "string",
          "name": "_daoProfile",
          "type": "string"
        },
        {
          "internalType": "string",
          "name": "_daoIcon",
          "type": "string"
        }
      ],
      "name": "addDaos",
      "outputs": [],
      "stateMutability": "nonpayable",
      "type": "function"
    },
    {
      "inputs": [
        {
          "internalType": "uint256",
          "name": "",
          "type": "uint256"
        }
      ],
      "name": "daos",
      "outputs": [
        {
          "internalType": "address",
          "name": "daoAddress",
          "type": "address"
        },
        {
          "internalType": "string",
          "name": "daoName",
          "type": "string"
        },
        {
          "internalType": "string",
          "name": "daoProfile",
          "type": "string"
        },
        {
          "internalType": "string",
          "name": "daoIcon",
          "type": "string"
        },
        {
          "internalType": "uint256",
          "name": "creationTime",
          "type": "uint256"
        }
      ],
      "stateMutability": "view",
      "type": "function"
    },
    {
      "inputs": [],
      "name": "getAllDaoList",
      "outputs": [
        {
          "components": [
            {
              "internalType": "address",
              "name": "daoAddress",
              "type": "address"
            },
            {
              "internalType": "string",
              "name": "daoName",
              "type": "string"
            },
            {
              "internalType": "string",
              "name": "daoProfile",
              "type": "string"
            },
            {
              "internalType": "string",
              "name": "daoIcon",
              "type": "string"
            },
            {
              "internalType": "uint256",
              "name": "creationTime",
              "type": "uint256"
            }
          ],
          "internalType": "struct SharedStruct.Dao[]",
          "name": "",
          "type": "tuple[]"
        }
      ],
      "stateMutability": "view",
      "type": "function"
    }
  ],
  "bytecode": "0x608060405234801561001057600080fd5b506109eb806100206000396000f3fe608060405234801561001057600080fd5b50600436106100415760003560e01c806302c256f6146100465780636721b7c01461005b578063ccbbd26014610079575b600080fd5b610059610054366004610647565b61009d565b005b61006361018b565b6040516100709190610734565b60405180910390f35b61008c6100873660046107f6565b6103c0565b60405161007095949392919061080f565b6040805160a0810182526001600160a01b03868116825260208201868152928201859052606082018490524260808301526000805460018101825590805282517f290decd9548b62a8d60345a988386fc84ba6bc95484008f6362f93160ef3e563600590920291820180546001600160a01b031916919093161782559251919290917f290decd9548b62a8d60345a988386fc84ba6bc95484008f6362f93160ef3e5649091019061014e90826108f5565b506040820151600282019061016390826108f5565b506060820151600382019061017890826108f5565b5060808201518160040155505050505050565b60606000805480602002602001604051908101604052809291908181526020016000905b828210156103b75760008481526020908190206040805160a081019091526005850290910180546001600160a01b0316825260018101805492939192918401916101f89061086c565b80601f01602080910402602001604051908101604052809291908181526020018280546102249061086c565b80156102715780601f1061024657610100808354040283529160200191610271565b820191906000526020600020905b81548152906001019060200180831161025457829003601f168201915b5050505050815260200160028201805461028a9061086c565b80601f01602080910402602001604051908101604052809291908181526020018280546102b69061086c565b80156103035780601f106102d857610100808354040283529160200191610303565b820191906000526020600020905b8154815290600101906020018083116102e657829003601f168201915b5050505050815260200160038201805461031c9061086c565b80601f01602080910402602001604051908101604052809291908181526020018280546103489061086c565b80156103955780601f1061036a57610100808354040283529160200191610395565b820191906000526020600020905b81548152906001019060200180831161037857829003601f168201915b50505050508152602001600482015481525050815260200190600101906101af565b50505050905090565b600081815481106103d057600080fd5b6000918252602090912060059091020180546001820180546001600160a01b039092169350906103ff9061086c565b80601f016020809104026020016040519081016040528092919081815260200182805461042b9061086c565b80156104785780601f1061044d57610100808354040283529160200191610478565b820191906000526020600020905b81548152906001019060200180831161045b57829003601f168201915b50505050509080600201805461048d9061086c565b80601f01602080910402602001604051908101604052809291908181526020018280546104b99061086c565b80156105065780601f106104db57610100808354040283529160200191610506565b820191906000526020600020905b8154815290600101906020018083116104e957829003601f168201915b50505050509080600301805461051b9061086c565b80601f01602080910402602001604051908101604052809291908181526020018280546105479061086c565b80156105945780601f1061056957610100808354040283529160200191610594565b820191906000526020600020905b81548152906001019060200180831161057757829003601f168201915b5050505050908060040154905085565b634e487b7160e01b600052604160045260246000fd5b600082601f8301126105cb57600080fd5b813567ffffffffffffffff808211156105e6576105e66105a4565b604051601f8301601f19908116603f0116810190828211818310171561060e5761060e6105a4565b8160405283815286602085880101111561062757600080fd5b836020870160208301376000602085830101528094505050505092915050565b6000806000806080858703121561065d57600080fd5b84356001600160a01b038116811461067457600080fd5b9350602085013567ffffffffffffffff8082111561069157600080fd5b61069d888389016105ba565b945060408701359150808211156106b357600080fd5b6106bf888389016105ba565b935060608701359150808211156106d557600080fd5b506106e2878288016105ba565b91505092959194509250565b6000815180845260005b81811015610714576020818501810151868301820152016106f8565b506000602082860101526020601f19601f83011685010191505092915050565b60006020808301818452808551808352604092508286019150828160051b87010184880160005b838110156107e857888303603f19018552815180516001600160a01b031684528781015160a089860181905290610794828701826106ee565b91505087820151858203898701526107ac82826106ee565b915050606080830151868303828801526107c683826106ee565b608094850151979094019690965250509487019492509086019060010161075b565b509098975050505050505050565b60006020828403121561080857600080fd5b5035919050565b6001600160a01b038616815260a060208201819052600090610833908301876106ee565b828103604084015261084581876106ee565b9050828103606084015261085981866106ee565b9150508260808301529695505050505050565b600181811c9082168061088057607f821691505b6020821081036108a057634e487b7160e01b600052602260045260246000fd5b50919050565b601f8211156108f057600081815260208120601f850160051c810160208610156108cd5750805b601f850160051c820191505b818110156108ec578281556001016108d9565b5050505b505050565b815167ffffffffffffffff81111561090f5761090f6105a4565b6109238161091d845461086c565b846108a6565b602080601f83116001811461095857600084156109405750858301515b600019600386901b1c1916600185901b1785556108ec565b600085815260208120601f198616915b8281101561098757888601518255948401946001909101908401610968565b50858210156109a55787850151600019600388901b60f8161c191681555b5050505050600190811b0190555056fea26469706673582212203175e6efe9cb670ec394b32da8b7606458ea71063d340c4776ba857d6f7aa84664736f6c63430008110033",
  "linkReferences": {},
  "deployedLinkReferences": {}
}